:100000000C942A000C9447000C9447000C94470071
:100010000C9447000C9447000C9447000C94470044
:100020000C9447000C9447000C946C010C9447000E
:100030000C9447000C9447000C9447000C94470024
:100040000C9447000C9447000C9447000C94470014
:100050000C94470011241FBECFE5D8E0DEBFCDBF12
:1000600011E0A0E6B0E0E6EBF6E202C005900D92EA
:10007000AE32B107D9F711E0AEE2B1E001C01D9296
:10008000A233B107E1F70E9449000C9459130C9474
:1000900000000E94CF0F0E94070F0E94551284E4B7
:1000A00060E00E944B1284E461E00E944B1284E401
:1000B00062E00E944B1284E463E00E94351284E403
:1000C00064E00E94351288E00E94AC0F81E064E099
:1000D0000E94191180E690E00E94001182E066E023
:1000E0000E94191189E690E00E9400118CE00E94A4
:1000F000AC0F8FEF9DE3A9E481509040A040E1F761
:1001000000C000000E940F11D0E011E0C0E00F2EEF
:10011000F0EA6F2EF0E07F2EF02D0F2EF2E9AF2ED9
:10012000F0E0BF2EF02D0F2EF3E88F2EF0E09F2E83
:10013000F02D0F2EF7E7CF2EF0E0DF2EF02D0F2E53
:10014000FEE6EF2EF0E0FF2EF02D02C0DC2F11E0D6
:10015000113009F052C00E940F1188E00E94AC0FCC
:1001600082E061E00E9419118CE30E94141082E089
:1001700068E00E9419118FE40E9414108BE40E9421
:10018000141082E060E10E9419118EE30E941410A5
:10019000DD2341F481E064E00E941911C7010E944F
:1001A000001127C0D13041F481E063E00E941911B1
:1001B000C6010E9400111DC0D23041F481E062E00E
:1001C0000E941911C4010E94001113C0D33041F4E0
:1001D00081E061E00E941911C5010E94001109C06F
:1001E000D43039F481E061E00E941911C3010E940A
:1001F00000118CE00E94AC0F1C2F84E46C2F0E9435
:100200004F12813069F4D43010F4DF5F01C0DC2F6D
:1002100084E46C2F0E944F128130D1F311E098CF0B
:1002200084E462E00E944F12813069F4DD2311F012
:10023000D15001C0D4E084E462E00E944F128130CA
:10024000D1F311E085CF84E461E00E944F12813048
:1002500009F07ECF84E461E00E944F128130D1F337
:10026000D230D9F0D33030F4DD2351F0D13009F061
:100270006DCF0CC0D330C1F0D43009F067CF1EC0B1
:10028000C09331010E94910B11E062CFC093310104
:100290000E941508DC2F11E05BCFC09331010E9452
:1002A000AD05DC2F11E054CF81E0809331018093C4
:1002B000AF000E94710BDC2F11E04ACF81E08093E8
:1002C0003101C0932F018093AF00C0932E010E9493
:1002D000EA07DC2F11E03CCF1F920F920FB60F926E
:1002E00011248F93809130018F5F809330018F9123
:1002F0000F900FBE0F901F901895843409F479C0A9
:10030000853448F48234B1F1833408F053C0813429
:1003100009F08DC00FC0823669F1833620F4813632
:1003200009F085C007C0833609F444C0843609F05B
:100330007EC05FC0413069F42AB381E090E0AC0137
:1003400002C0440F551F6A95E2F7BA01622B6ABBDF
:100350000895442309F06BC02AB381E090E0AC011A
:1003600002C0440F551F6A95E2F7BA0160956223F7
:100370006ABB0895413069F427B381E090E0AC0195
:1003800002C0440F551F6A95E2F7BA01622B67BBA2
:100390000895442309F04BC027B381E090E0AC01FD
:1003A00002C0440F551F6A95E2F7BA0160956223B7
:1003B00067BB0895413069F424B381E090E0AC015B
:1003C00002C0440F551F6A95E2F7BA01622B64BB65
:1003D0000895442361F524B381E090E0AC0102C0AC
:1003E000440F551F6A95E2F7BA016095622364BB1A
:1003F0000895413069F421B381E090E0AC0102C07E
:10040000440F551F6A95E2F7BA01622B61BB08954C
:10041000442369F421B381E090E0AC0102C0440FB1
:10042000551F6A95E2F7BA016095622361BB089592
:10043000843409F479C0853448F48234B1F18334CA
:1004400008F053C0813409F08DC00FC0823669F1C5
:10045000833620F4813609F085C007C0833609F45D
:1004600044C0843609F07EC05FC0413069F42BB3CC
:1004700081E090E0AC0102C0440F551F6A95E2F79D
:10048000BA01622B6BBB0895442309F06BC02BB3F8
:1004900081E090E0AC0102C0440F551F6A95E2F77D
:1004A000BA01609562236BBB0895413069F428B3AB
:1004B00081E090E0AC0102C0440F551F6A95E2F75D
:1004C000BA01622B68BB0895442309F04BC028B3DE
:1004D00081E090E0AC0102C0440F551F6A95E2F73D
:1004E000BA016095622368BB0895413069F425B371
:1004F00081E090E0AC0102C0440F551F6A95E2F71D
:10050000BA01622B65BB0895442361F525B381E0F0
:1005100090E0AC0102C0440F551F6A95E2F7BA01A2
:100520006095622365BB0895413069F422B381E090
:1005300090E0AC0102C0440F551F6A95E2F7BA0182
:10054000622B62BB0895442369F422B381E090E0FA
:10055000AC0102C0440F551F6A95E2F7BA016095DD
:10056000622362BB0895843409F44EC0853440F49C
:10057000823431F18334B0F5813409F057C00EC0B4
:100580008236F1F0833620F4813609F04FC006C080
:10059000833641F1843609F049C036C029B381E081
:1005A00090E0062E02C0880F991F0A94E2F730E00F
:1005B0008223932302C0959587956A95E2F7089563
:1005C00026B381E090E0062E02C0880F991F0A949E
:1005D000E2F730E08223932302C0959587956A95D0
:1005E000E2F7089523B381E090E0062E02C0880F61
:1005F000991F0A94E2F730E08223932302C0959575
:1006000087956A95E2F7089520B381E090E0062E81
:1006100002C0880F991F0A94E2F730E082239323E7
:1006200002C0959587956A95E2F7089580E0089550
:10063000843409F43DC0853440F48234F9F08334C5
:1006400050F5813409F040C00CC08236B9F08336D1
:1006500018F48136C9F505C08336E9F08436A1F572
:1006600027C02BB381E090E0AC0102C0440F551FBE
:100670006A95E2F7BA0162276BBB089528B381E05F
:1006800090E0AC0102C0440F551F6A95E2F7BA0131
:10069000622768BB089525B381E090E0AC0102C0F9
:1006A000440F551F6A95E2F7BA01622765BB0895AA
:1006B00022B381E090E0AC0102C0440F551F6A955F
:1006C000E2F7BA01622762BB08958434D9F0853419
:1006D00038F4823499F0833498F48134A1F40CC056
:1006E000823661F0833618F4813669F405C08336AA
:1006F00039F0843641F406C06ABB089567BB08959B
:1007000064BB089561BB08958434D9F0853438F40E
:10071000823499F0833498F48134A1F40CC0823689
:1007200061F0833618F4813669F405C0833639F0F8
:10073000843641F406C06BBB089568BB089565BB61
:10074000089562BB08958434D9F0853438F4823436
:1007500099F0833498F48134A9F40CC0823661F0A6
:10076000833618F4813671F405C0833639F0843647
:1007700049F406C089B3089586B3089583B30895F4
:1007800080B3089580E00895843409F479C08534F5
:1007900048F48234B1F1833408F053C0813409F055
:1007A0008DC00FC0823669F1833620F4813609F09E
:1007B00085C007C0833609F444C0843609F07EC082
:1007C0005FC0413069F42BB381E090E0AC0102C01E
:1007D000440F551F6A95E2F7BA01622B6BBB08956F
:1007E000442309F06BC02BB381E090E0AC0102C060
:1007F000440F551F6A95E2F7BA01609562236BBBFF
:100800000895413069F428B381E090E0AC0102C062
:10081000440F551F6A95E2F7BA01622B68BB089531
:10082000442309F04BC028B381E090E0AC0102C042
:10083000440F551F6A95E2F7BA016095622368BBC1
:100840000895413069F425B381E090E0AC0102C025
:10085000440F551F6A95E2F7BA01622B65BB0895F4
:10086000442361F525B381E090E0AC0102C0440F60
:10087000551F6A95E2F7BA016095622365BB08953A
:10088000413069F422B381E090E0AC0102C0440F32
:10089000551F6A95E2F7BA01622B62BB08954423A3
:1008A00069F422B381E090E0AC0102C0440F551F0F
:1008B0006A95E2F7BA016095622362BB08956F7092
:1008C000843451F1853438F48234C1F08334E8F44F
:1008D000813441F50CC0823689F0833618F48136B4
:1008E00009F505C0833689F08436E1F415C08BB371
:1008F000807F8BBB8BB3682B6BBB089588B3807FE5
:1009000088BB88B3682B68BB089585B3807F85BB9F
:1009100085B3682B65BB089582B3807F82BB82B3A9
:10092000682B62BB08956295607F843451F18534F1
:1009300038F48234C1F08334E8F4813441F50CC0DA
:10094000823689F0833618F4813609F505C083367E
:1009500089F08436E1F415C08BB38F708BBB8BB3F9
:10096000682B6BBB089588B38F7088BB88B3682BE6
:1009700068BB089585B38F7085BB85B3682B65BB55
:10098000089582B38F7082BB82B3682B62BB0895D7
:100990009FBB8EBB6DBBE29AE19AE199FECF0895B1
:1009A0009FBB8EBBE09A8DB308958F929F92AF92BA
:1009B000BF92CF92DF92EF92FF920F931F93CF934C
:1009C000DF93D0E011E0C0E00F2EF6ECAF2EF0E0A8
:1009D000BF2EF02D0F2EFFEB8F2EF0E09F2EF02D6F
:1009E0000F2EFAEBCF2EF0E0DF2EF02D0F2EF0EBD6
:1009F000EF2EF0E0FF2EF02D03E0113009F048C09B
:100A00000E940F1188E00E94AC0F82E061E00E941A
:100A100019118CE30E94141082E068E00E94191101
:100A20008FE40E9414108BE40E94141082E060E1B5
:100A30000E9419118EE30E941410DD2341F481E01D
:100A400064E00E941911C7010E9400111DC0D1303D
:100A500041F481E066E00E941911C6010E94001174
:100A600013C0D23041F481E065E00E941911C40145
:100A70000E94001109C0D33039F481E066E00E9481
:100A80001911C5010E9400118CE00E94AC0F1C2FAF
:100A900084E46C2F0E944F12813069F4D33010F43B
:100AA000DF5F01C0DC2F84E46C2F0E944F12813085
:100AB000D1F311E0A2CF84E462E00E944F128130B2
:100AC00069F4DD2311F0D15001C0D02F84E462E03D
:100AD0000E944F128130D1F311E08FCF84E461E0A6
:100AE0000E944F12813009F088CF84E461E00E94B7
:100AF0004F128130D1F38D2FDF91CF911F910F9144
:100B0000FF90EF90DF90CF90BF90AF909F908F902D
:100B10000895CF93C82F80913101882379F082E026
:100B200068E00E94191188E20E94141080912E0141
:100B30000E94D21089E20E9414100DC082E068E089
:100B40000E94191188E20E9414108C2F0E94D2106A
:100B500089E20E941410CF9108952F923F924F92F4
:100B60005F926F927F928F929F92AF92BF92CF923D
:100B7000DF92EF92FF920F931F93CF93DF93CDB746
:100B8000DEB7A3970FB6F894DEBF0FBECDBFFE0150
:100B9000319686E0DF011D928A95E9F7FE013796CE
:100BA00088E1DF011D928A95E9F7B1E0BBA321E05E
:100BB0002AA319A24E010894811C911CCE014F96C4
:100BC00098A38F8F0F2EFFEF2F2EF0E03F2EF0E037
:100BD0004F2EF0E05F2EF02D6F01A82C692C809134
:100BE0003101833039F40E94710B8091AF0088236A
:100BF00051F4D7C1853039F40E94EA078091AF00E3
:100C0000882309F4CEC19BA1992309F4CAC1AAA1E2
:100C1000A13009F076C0FE013796D4018FEF219202
:100C20003192419251928D932F8D38A1E217F307A3
:100C3000B1F70E940F1182E06FE00E9419118FE45A
:100C40000E9414108BE40E94141082E061E00E9464
:100C500019118BEC90E00E94001189A10E94890576
:100C600004E610E00E94ED12B8010E9484127C019B
:100C700001978C309105B0F70E94ED1264E670E0A8
:100C80000E9484128C0101978C309105A8F782E0B4
:100C90000E94AC0F8EE00E94AC0FC7010E94311081
:100CA0008AE20E941410C8010E9431108DE30E9454
:100CB00014100E9D90010F9D300D1E9D300D1124BE
:100CC0002A30310560F40E9D002D112409838FEF29
:100CD0008A838B838C838D838E831AA212C02436E1
:100CE0003105C8F4C9016AE070E00E94841269838A
:100CF0008A838FEF8B838C838D838E831AA201C0AE
:100D00001AA200E00F2EF5E07F2EF02DBB24B39445
:100D1000EE24FB2C1DC083E0283E380788F7C9016C
:100D200064E670E00E9484126983EAE0F0E0C901A1
:100D3000BF010E948412282FCB01BF010E948412A0
:100D40008A832B838FEF8C838D838E831AA2D9CFD6
:100D50000E94440F182F8F3F39F10E941410802FEA
:100D600090E0880F991F880F991FF401E80FF91F71
:100D7000812F90E0C097AA2797FDA095BA2F868370
:100D80009783A087B1870F5F063020F080E10E9433
:100D9000AC0F072D8FE79AE1A6E081509040A0406C
:100DA000E1F700C00000D4CF84E462E00E944F125B
:100DB0008130F9F40023B1F0E02FF0E0EE0FFF1FD7
:100DC000EE0FFF1FE80DF91D2682378240865186FF
:100DD00080E20E94141080E10E94AC0F80E10E942A
:100DE000AC0F015084E462E00E944F128130D1F3D5
:100DF000AFCF84E46B2D0E944F12813039F084E430
:100E00006E2D0E944F12813009F0A2CFEA2DF62DEF
:100E100096011E2D8191D9014D915D916D917D912C
:100E20009D0190E0A0E0B0E084179507A607B70702
:100E300009F01F2DEC15FD0569F7112309F059C0C4
:100E400080913101882331F091E09093AF008F5F62
:100E5000809331010E940F118CE00E94AC0F81E061
:100E600063E00E94191182ED90E00E94001182E07F
:100E700061E00E9419118FED90E00E9400118091B5
:100E80003101823048F080912E018F5F89A38093D9
:100E90002E010E94D21006C0B9A1BF5FB9A38B2F4B
:100EA0000E94D2108CE00E94AC0F8FEF9DE3A9E46A
:100EB00081509040A040E1F700C000002F823886AA
:100EC00049865A862B863C864D865E862F86388AD2
:100ED000498A5A8A2B8A3C8A4D8A5E8A2F8A388EA2
:100EE000498E5A8E2B8E3C8E4D8E5E8E91E09AA34B
:100EF00076CE113009F02CCF80913101882329F072
:100F00001092AF00A0912E01A9A30E940F118CE0B6
:100F10000E94AC0F81E063E00E94191187EE90E01F
:100F20000E9400118FEF93EDA0E381509040A0400C
:100F3000E1F700C000000E940F118CE00E94AC0F8E
:100F400086E390E00E94D00499A1891728F486E3F3
:100F500090E069A10E94C8040E940F118CE00E94D9
:100F6000AC0F84EF90E00E94001189A10E94D21082
:100F700082E061E00E94191180E091E00E9400117E
:100F800086E390E00E94D0040E94D2108FEF9DE390
:100F9000A9E481509040A040E1F700C000001BA2EE
:100FA0001ECEA3960FB6F894DEBF0FBECDBFDF9165
:100FB000CF911F910F91FF90EF90DF90CF90BF9056
:100FC000AF909F908F907F906F905F904F903F90E9
:100FD0002F900895CF93DF93D4E0C3E08091AF00CA
:100FE000882301F180913101813031F40E94D504D0
:100FF00080932F0110922E01D09331010E94ED12A7
:101000006C2F0E947812992319F40E941508E6CFDC
:10101000913019F40E94AD05E1CF9230F9F60E94AB
:10102000910BDCCFDF91CF9108952F923F924F9299
:101030005F926F927F928F929F92AF92BF92CF9268
:10104000DF92EF92FF920F931F93CF93DF93CDB771
:10105000DEB7AE970FB6F894DEBF0FBECDBF80915E
:101060003101882321F020912F012EA703C00E9477
:10107000D5048EA7FE01319686E0DF011D928A9588
:10108000E9F7FE01379688E1DF011D928A95E9F7BD
:10109000222433241DA61CA61FA21EA21DA26F017E
:1010A0004E010894811C911CFE017F96F8A3EF8FDE
:1010B00088A699A6CAA6DBA6FFEFF9A31AA21BA2CF
:1010C0001CA27C2C6D2C582C492C80913101833032
:1010D00039F40E94710B8091AF00882351F4E8C26B
:1010E000853039F40E94EA078091AF00882309F423
:1010F000DFC2A8A5B9A5EAA5FBA52FEF30E040E027
:1011000050E021933193419351933FEF3D934F8DA5
:1011100058A1E417F50789F70E940F1182E06FE0EC
:101120000E9419118FE40E9414108BE40E94141085
:1011300082E061E00E9419118BEC90E00E940011A6
:101140008DA10E9489055EA5523009F440C053303C
:1011500030F4552361F0513009F082C020C08EA5D3
:10116000833009F44CC0843009F07AC059C00AE0D9
:1011700010E00E94ED12B8010E9484127C010E94CE
:10118000ED12B8010E9484128E159F0590F7FDA6FE
:10119000ECA61C012AE030E03FA32EA361C004E6C8
:1011A00010E00E94ED12B8010E9484127C010E949E
:1011B000ED12B8010E9484128E159F0590F7FDA6CE
:1011C000ECA61C0144E650E05FA34EA349C008EE24
:1011D00013E00E94ED12B8010E9484127C010E946B
:1011E000ED12B8010E9484128E159F0590F7FDA69E
:1011F000ECA61C0188EE93E09FA38EA331C000E112
:1012000017E20E94ED12B8010E9484127C010E9434
:10121000ED12B8010E9484128E159F0590F719C037
:101220000E94ED128C019FEF0F3F1907C9F378015F
:101230000E94ED12AFEF8F3F9A07D1F38E159F05F5
:1012400078F71DA70CA71C01EFEFFFEFFFA3EEA39C
:1012500007C0FDA6ECA61C01A0E1B7E2BFA3AEA3A8
:1012600082E00E94AC0F8EE00E94AC0F8CA59DA581
:101270000E9431108DE20E941410C1010E943110B1
:101280008DE30E9414102CA53DA5221933092A30A4
:10129000310550F48CA582198983BFEFBA83BB83D3
:1012A000BC83BD83BE830FC024363105B0F4C901B1
:1012B0006AE070E00E94841269838A83EFEFEB8317
:1012C000EC83ED83EE8300E00F2EF5E0AF2EF02DE2
:1012D000BB24B394EE24FB2C6BC0F3E0283E3F0705
:1012E000C0F4C90164E670E00E9484126983EAE0F8
:1012F000F0E0C901BF010E948412282FCB01BF0179
:101300000E9484128A832B832FEF2C832D832E83BC
:10131000DACF47E22031340708F5C90168EE73E0FF
:101320000E9484126983C90164E670E00E948412FD
:10133000CB01EAE0F0E0BF010E9484128A83C90178
:10134000BF010E948412282FCB01BF010E9484128A
:101350008B832C835FEF5D835E83B5CFC90160E132
:1013600077E20E9484126983C90168EE73E00E94EB
:101370008412CB01EAE0F0E0BF010E9484128A836C
:10138000C90164E670E00E948412CB01BF010E9493
:1013900084128B83C901BF010E948412282FCB01C4
:1013A000BF010E9484128C832D838FEF8E838BCF9D
:1013B0000E94440F182F8F3F39F10E941410802F84
:1013C00090E0880F991F880F991FF401E80FF91F0B
:1013D000812F90E0C097AA2797FDA095BA2F86830A
:1013E0009783A087B1870F5F063020F080E10E94CD
:1013F000AC0F0A2D2FE73AE146E021503040404043
:10140000E1F700C00000D4CF84E462E00E944F12F4
:10141000813031F50023E9F0802F90E0880F991F8B
:10142000880F991F880D991D2FEF30E040E050E0A4
:10143000DC0116962D933D934D935C93199780E2B2
:101440000E94141080E10E94AC0F80E10E94AC0F5A
:10145000015084E462E00E944F128130D1F3A8CFA2
:1014600084E46B2D0E944F12813039F084E46E2D9C
:101470000E944F12813009F09BCF272D362DE52D8C
:10148000F42D1E2D8191D9014D915D916D917D912C
:101490009D0190E0A0E0B0E084179507A607B7078C
:1014A00009F01F2DEC15FD0569F7112309F05BC04C
:1014B00080913101882331F091E09093AF008F5FEC
:1014C000809331010E940F118CE00E94AC0F81E0EB
:1014D00063E00E94191182ED90E00E94001182E009
:1014E00061E00E9419118FED90E00E94001180913F
:1014F0003101823048F080912E018F5F8DA380935F
:101500002E010E94D21006C0BDA1BF5FBDA38B2FCC
:101510000E94D2108CE00E94AC0F2FEF3DE349E413
:10152000215030404040E1F700C0000039A13F8326
:101530004AA148875BA159878CA18A873B874C8742
:101540005D878E873F87488B598B8A8B3B8B4C8B73
:101550005D8B8E8B3F8B488F598F8A8F3B8F4C8F43
:101560005D8F8E8FB2CD113009F022CF8091310185
:10157000882311F01092AF000E940F118CE00E949E
:10158000AC0F81E063E00E94191187EE90E00E94A9
:1015900000112FEF33ED40E3215030404040E1F7A0
:1015A00000C000000E940F118CE00E94AC0F8091DF
:1015B0003101882319F030912E013DA34EA15FA186
:1015C0004436510501F14536510528F44A3051059C
:1015D00009F043C00BC08EA19FA1A3E0883E9A07EB
:1015E00001F1B7E280319B07C1F529C081E390E0AA
:1015F0000E94D004EDA18E17B8F581E390E06E2F24
:101600000E94C80431C082E390E00E94D004FDA192
:101610008F1728F582E390E06F2F0E94C80412E034
:1016200023C083E390E00E94D0042DA18217C8F468
:1016300083E390E0622F0E94C80413E015C084E3A6
:1016400090E00E94D0043DA1831768F484E390E009
:10165000632F0E94C80414E007C010E005C012E028
:1016600003C013E001C014E00E940F118CE00E943F
:10167000AC0F84EF90E00E9400118DA10E94D21067
:1016800082E061E00E94191180E091E00E94001167
:10169000812F90E0C0960E94D0040E94D2108FEF5C
:1016A0009DE3A9E481509040A040E1F700C0000014
:1016B000AE960FB6F894DEBF0FBECDBFDF91CF91CF
:1016C0001F910F91FF90EF90DF90CF90BF90AF9060
:1016D0009F908F907F906F905F904F903F902F9052
:1016E0000895CF93C2E08091AF008823C1F080912C
:1016F0003101813031F40E94D50480932F01109282
:101700002E01C09331010E94ED1280FD03C00E94A2
:101710001508E9CF80FFE7CF0E94910BE4CFCF916E
:1017200008952F923F924F925F926F927F928F9285
:101730009F92AF92BF92CF92DF92EF92FF920F9360
:101740001F93CF93DF93CDB7DEB7AA970FB6F89468
:10175000DEBF0FBECDBF80913101882321F02091E3
:101760002F012AA703C00E94D5048AA7FE01319643
:1017700086E0DF011D928A95E9F7FE01379688E140
:10178000DF011D928A95E9F7B1E0BDA3E1E0EAA38C
:1017900019A618A61FA21EA21CA21BA219A24E01C6
:1017A0000894811C911C9E01215E3F4F38A32F8F0E
:1017B0000F2EFFEF2F2EF0E03F2EF0E04F2EF0E047
:1017C0005F2EF02D0F2EF7E0CF2EDD24F02DCC0E66
:1017D000DD1E782C692C80913101833039F40E9410
:1017E000710B8091AF00882351F4E6C2853039F443
:1017F0000E94EA078091AF00882309F4DDC23DA171
:10180000332309F4D9C28AA1813009F0E0C0FE0176
:101810003796D4018FEF21923192419251928D935C
:101820002F8D38A1E217F307B1F70E940F1182E064
:101830006FE00E9419118FE40E9414108BE40E9443
:10184000141082E061E00E9419118BEC90E00E947C
:10185000001189A10E9489053AA53230C1F13330C7
:1018600030F4332361F0313009F078C01BC08AA511
:10187000833009F441C0843009F070C052C00AE0DE
:1018800010E00E94ED12B8010E9484127C010E94B7
:10189000ED12B8010E948412E114F10491F3009753
:1018A00081F354C00E94ED1204E610E0B8010E94DA
:1018B00084129FA38EA30E94ED12B8010E9484128D
:1018C00099A788A7A4E6B0E0BCA3ABA347C00E9439
:1018D000ED1208EE13E0B8010E9484129FA38EA3BC
:1018E0000E94ED12B8010E94841299A788A7E8EE21
:1018F000F3E0FCA3EBA332C00E94ED1200E117E27B
:10190000B8010E9484129FA38EA30E94ED12B80119
:101910000E94841299A788A720E137E23CA32BA359
:101920001DC00E94ED123FEF8F3F9307D1F39FA39D
:101930008EA30E94ED12AFEF8F3F9A07D1F399A7C4
:1019400088A7EFEFFFEFFCA3EBA308C0FFA2EEA276
:1019500099A788A72AE030E03CA32BA382E00E944D
:10196000AC0F8EE00E94AC0F8EA19FA10E9431109F
:101970008BE20E94141088A599A50E9431108DE376
:101980000E94141028A539A58EA19FA1280F391FE8
:101990002A30310560F488A59EA1890F89838FEFD5
:1019A0008A838B838C838D838E831AA210C0243606
:1019B0003105B8F4C9016AE070E00E9484126983BD
:1019C0008A838FEF8B838C838D838E831AA200E0B2
:1019D0000F2EF5E0AF2EF02DBB24B394EE24FB2C9C
:1019E0006EC0A3E0283E3A07C8F4C90164E670E07F
:1019F0000E9484126983EAE0F0E0C901BF010E94FD
:101A00008412282FCB01BF010E9484128A832B836A
:101A10008FEF8C838D838E831AA2D9CFB7E22031CA
:101A20003B0710F5C90168EE73E00E9484126983D8
:101A3000C90164E670E00E948412CB01EAE0F0E0A4
:101A4000BF010E9484128A83C901BF010E948412CF
:101A5000282FCB01BF010E9484128B832C838FEF30
:101A60008D838E831AA2B3CFC90160E177E20E9411
:101A700084126983C90168EE73E00E948412CB016D
:101A8000EAE0F0E0BF010E9484128A83C90164E6A3
:101A900070E00E948412CB01BF010E9484128B83EC
:101AA000C901BF010E948412282FCB01BF010E94EF
:101AB00084128C832D838FEF8E831AA288CF0E948D
:101AC000440F182F8F3F39F10E941410802F90E09F
:101AD000880F991F880F991FF401E80FF91F812FB4
:101AE00090E0C097AA2797FDA095BA2F8683978389
:101AF000A087B1870F5F063020F080E10E94AC0F15
:101B00000A2D8FE79AE1A6E081509040A040E1F7CE
:101B100000C00000D4CF84E462E00E944F12813004
:101B200011F50023C9F0802F90E0880F991F880FCE
:101B3000991F880D991DDC0116962D923D924D92AC
:101B40005C92199780E20E94141080E10E94AC0F11
:101B500080E10E94AC0F015084E462E00E944F12C9
:101B60008130D1F3ACCF84E46B2D0E944F128130D1
:101B700039F084E46E2D0E944F12813009F09FCF1E
:101B8000E72DF62D96011E2D8191D9014D915D9184
:101B90006D917D919D0190E0A0E0B0E084179507E4
:101BA000A607B70709F01F2DEC15FD0569F71123EE
:101BB00009F058C080913101882331F091E0909371
:101BC000AF008F5F809331010E940F1181E063E0CD
:101BD0000E94191182ED90E00E94001182E061E004
:101BE0000E9419118CE091E00E9400118091310156
:101BF000823058F080912E018F5F80932E010E94D9
:101C0000D210B0912E01B9A306C0E9A1EF5FE9A3FC
:101C10008E2F0E94D2108CE00E94AC0F8FEF9DE3BC
:101C2000A9E481509040A040E1F700C000002F825D
:101C3000388649865A862B863C864D865E862F8658
:101C4000388A498A5A8A2B8A3C8A4D8A5E8A2F8A28
:101C5000388E498E5A8E2B8E3C8E4D8E5E8E91E044
:101C60009AA3B9CD113009F02ACF80913101882390
:101C700029F01092AF008F5F809331010E940F1105
:101C80008CE00E94AC0F81E063E00E94191187EEA6
:101C900090E00E9400118FEF93EDA0E381509040FF
:101CA000A040E1F700C000000E940F118CE00E94EC
:101CB000AC0F80913101882319F090912E0199A3E6
:101CC000ABA1BCA1A436B10501F1A536B10528F43C
:101CD000AA30B10509F043C00BC0EBA1FCA123E081
:101CE000E83EF20701F137E2E031F307C1F529C020
:101CF00081E390E00E94D00499A18917B8F581E3AF
:101D000090E069A10E94C80431C082E390E00E9483
:101D1000D004A9A18A1728F582E390E06A2F0E94D7
:101D2000C80412E023C083E390E00E94D004B9A16C
:101D30008B17C8F483E390E06B2F0E94C80413E074
:101D400015C084E390E00E94D004E9A18E1768F4E6
:101D500084E390E06E2F0E94C80414E007C010E0F6
:101D600005C012E003C013E001C014E00E940F118F
:101D70008CE00E94AC0F84EF90E00E94001189A1DA
:101D80000E94D21082E061E00E94191180E091E08F
:101D90000E940011812F90E0C0960E94D0040E9402
:101DA000D2108FEF9DE3A9E481509040A040E1F76D
:101DB00000C000001DA20FCDAA960FB6F894DEBF9A
:101DC0000FBECDBFDF91CF911F910F91FF90EF908C
:101DD000DF90CF90BF90AF909F908F907F906F904B
:101DE0005F904F903F902F90089582E068E00E94AE
:101DF000191183E191E00E9400118FEF93EDA0E3B0
:101E000081509040A040E1F700C00000089582E4B6
:101E100060E041E00E947D0182E461E041E00E94D7
:101E20007D0182E462E041E00E947D0182E463E0A2
:101E300041E00E947D0182E464E040E00E947D0177
:101E400082E465E040E00E947D0182E466E040E0DB
:101E50000E947D0182E467E040E00E947D0182E40F
:101E600064E041E00E94C40382E465E041E00E9436
:101E7000C40382E466E041E00E94C40382E467E0B8
:101E800041E00E94C40308950F931F93CF93DF9303
:101E9000CDB7DEB760970FB6F894DEBF0FBECDBFEB
:101EA000DE011196E9E1F1E080E101900D928150AF
:101EB000E1F700E082E460E041E00E94180282E481
:101EC00061E041E00E94180282E462E041E00E9489
:101ED000180282E463E041E00E94180282E4602F6D
:101EE00040E00E94180210E0612F6C5F82E40E94C3
:101EF000B302882361F4E02FF0E0EE0FFF1FEE0F36
:101F0000FF1FE10FF11DEC0FFD1F818104C01F5F5A
:101F1000143051F70BC060960FB6F894DEBF0FBEB9
:101F2000CDBFDF91CF911F910F9108950F5F0430C6
:101F300009F68FEFF0CF83E464E041E00E941802DD
:101F40008FE697E10197F1F700C0000083E464E0B9
:101F500040E00E9418020895CF93C82F682F629521
:101F60006F7083E40E945F0483E465E040E00E94B8
:101F700018020E949B0F8FEC97E00197F1F700C0C9
:101F8000000083E46C2F0E945F040E949B0F8FEC83
:101F900097E00197F1F700C00000CF9108958FEF0F
:101FA00091EEA4E081509040A040E1F700C0000015
:101FB00083E46FE00E94650383E464E041E00E94F3
:101FC0007D0183E465E041E00E947D0182E00E94A2
:101FD000AC0FAFE0B7E21197F1F700C0000088E264
:101FE0000E94AC0F8FEC97E00197F1F700C0000062
:101FF0008EE00E94AC0FAFECB7E01197F1F700C094
:10200000000081E00E94AC0F8FE097E20197F1F7AA
:1020100000C0000086E00E94AC0FAFECB7E0119763
:10202000F1F700C000000895CF93C82F83E465E066
:1020300041E00E9418026C2F62956F7083E40E9449
:102040005F040E949B0F83E46C2F0E945F040E9438
:102050009B0F8FEC97E00197F1F700C00000CF9144
:1020600008950F931F93CF93DF93EC018A3091056E
:1020700020F4805D0E94141090C08436910570F4A5
:102080006AE070E00E948412C82F862F805D0E9453
:1020900014108C2F805D0E9414107FC083E0C83E16
:1020A000D807E0F4CE0164E670E00E948412862F27
:1020B000805D0E9414102AE030E0CE01B9010E9438
:1020C0008412C82FCB01B9010E948412805D0E9446
:1020D00014108C2F805D0E9414105FC087E2C03105
:1020E000D80740F5CE0168EE73E00E948412862F77
:1020F000805D0E941410CE0164E670E00E9484129C
:10210000CB010AE010E0B8010E948412805D0E94B9
:102110001410CE01B8010E948412C82FCB01B8015F
:102120000E948412805D0E9414108C2F805D0E949A
:10213000141033C0CE0160E177E20E948412862F32
:10214000805D0E941410CE0168EE73E00E9484123C
:10215000CB010AE010E0B8010E948412805D0E9469
:102160001410CE0164E670E00E948412CB01B80125
:102170000E948412805D0E941410CE01B8010E945A
:102180008412C82FCB01B8010E948412805D0E9486
:1021900014108C2F805D0E941410DF91CF911F913D
:1021A0000F910895CF93C82F8A3020F4805D0E944C
:1021B000141024C0843660F46AE00E947812C92F9B
:1021C000805D0E9414108C2F805D0E94141016C038
:1021D00064E60E947812805D0E9414102AE08C2F21
:1021E000622F0E947812C92F0E947812892F805D79
:1021F0000E9414108C2F805D0E941410CF910895BE
:10220000CF93DF93EC018881882331F021960E94DF
:10221000141089918823D9F7DF91CF91089581E037
:102220000E94AC0F8FE19EE40197F1F700C000001F
:102230000895982F9150923030F4662331F0613137
:1022400030F490E005C098E003C098E001C098E049
:10225000813019F4962F915804C0823011F4962FD2
:102260009154892F0E94AC0F089582E00E94AC0F18
:10227000089580E40E94AC0F8FE10E9414108FE15A
:102280000E94141083E00E94141083E00E94141036
:1022900083E00E94141083E00E94141083E00E94E7
:1022A000141083E00E94141083E00E94141083E055
:1022B0000E94141083E00E94141083E00E94141006
:1022C00083E10E94141083E10E9414108FE10E94A8
:1022D00014108FE10E9414108FE10E9414108FE1FE
:1022E0000E94141080E10E94141080E10E941410DA
:1022F00080E10E94141080E10E9414108FE10E947E
:1023000014108FE10E9414108FE10E94141080E1DC
:102310000E94141080E10E94141080E10E941410A9
:1023200080E10E94141080E10E9414108FE10E944D
:1023300014108FE10E94141081E10E94141081E1B9
:102340000E94141089E10E94141089E10E94141067
:1023500089E10E94141085E10E94141085E10E9419
:10236000141085E10E94141085E10E94141085E18B
:102370000E94141085E10E94141083E10E94141041
:1023800083E10E94141083E10E94141081E10E94F5
:10239000141081E10E9414108FE10E9414108FE14B
:1023A0000E94141081E10E94141081E10E94141017
:1023B00081E10E94141081E10E94141081E10E94C9
:1023C000141081E10E94141081E10E94141081E137
:1023D0000E94141081E10E94141081E10E941410E7
:1023E00081E10E94141081E10E9414108FE10E948B
:1023F00014108FE10E94141081E067E00E9419110F
:1024000080E00E94141082E067E00E94191181E0D0
:102410000E94141081E068E00E94191182E00E947D
:10242000141082E068E00E94191183E00E941410E9
:1024300081E069E00E94191184E00E94141082E09A
:1024400069E00E94191185E00E94141081E06AE0A1
:102450000E94191186E00E94141082E06AE00E9436
:10246000191187E00E941410089541E00E947D0137
:10247000089541E00E941802089540E00E94180269
:1024800008950E94180308950E94B302089540E041
:102490000E947D01089540E00E947D0108950E9400
:1024A000B30208950E94C403089583B7886083BF70
:1024B00083B78E7F83BF83B78D7F83BF83B78460ED
:1024C00083BF8AEF8CBF789489B7826089BF0895F3
:1024D00083B78F7B83BF83B7877F83BF83B78E7FAD
:1024E00083BF83B78D7F83BF83B7846083BF089525
:1024F000991B79E004C0991F961708F0961B881F56
:102500007A95C9F780950895AA1BBB1B51E107C0B6
:10251000AA1FBB1FA617B70710F0A61BB70B881F73
:10252000991F5A95A9F780959095BC01CD01089502
:102530008F929F92AF92BF92CF92DF92EF92FF92D3
:10254000CF93DF93EC0188819981AA81BB810097A9
:10255000A105B10521F484E299EDABE5B7E0BC013A
:10256000CD012DE133EF41E050E00E941C13490101
:102570005A0127EA31E440E050E00E94FD126B016D
:102580007C01C501B4012CEE34EF4FEF5FEF0E94E8
:10259000FD12DC01CB01C80ED91EEA1EFB1EF7FEA0
:1025A00008C08FEF9FEFAFEFBFE7C80ED91EEA1E3E
:1025B000FB1EC882D982EA82FB82C6019F77DF9127
:1025C000CF91FF90EF90DF90CF90BF90AF909F9012
:1025D0008F9008950E949812089589E291E00E94D8
:1025E00098120895A0E0B0E08093290190932A0109
:1025F000A0932B01B0932C010895629FD001739F8B
:10260000F001829FE00DF11D649FE00DF11D929F8E
:10261000F00D839FF00D749FF00D659FF00D9927CD
:10262000729FB00DE11DF91F639FB00DE11DF91FF1
:10263000BD01CF011124089597FB092E05260ED068
:1026400057FD04D014D00AD0001C38F450954095A2
:10265000309521953F4F4F4F5F4F0895F6F7909576
:102660008095709561957F4F8F4F9F4F0895A1E2A0
:102670001A2EAA1BBB1BFD010DC0AA1FBB1FEE1FFC
:10268000FF1FA217B307E407F50720F0A21BB30B47
:10269000E40BF50B661F771F881F991F1A9469F7C3
:1026A00060957095809590959B01AC01BD01CF011F
:0626B0000895F894FFCF2D
:1026B6004348494C4452454E004D415448004164FC
:1026C600646974696F6E00737562747261637469AC
:1026D6006F6E006D756C7469706C69636174696F97
:1026E6006E0073696D706C652072616E646F6D004B
:1026F600636F6D706C65782072616E646F6D00013A
:102706007665727920656173790065617379006D0C
:10271600656469756D00686172640064656C6574F2
:102726006500726967687420616E737765720073FD
:10273600636F7265203D0077726F6E6720616E73FE
:1027460077657200796F75722073636F72653D00ED
:10275600686967682073636F72653D0073636F72A3
:10276600653D004445425547003738392F343536E4
:0E2776002A3132332D41303D2B01000000008E
:00000001FF
